{
  "contractName": "ItemManager",
  "abi": [
    {
      "anonymous": false,
      "inputs": [
        {
          "indexed": false,
          "internalType": "uint256",
          "name": "_itemIndex",
          "type": "uint256"
        },
        {
          "indexed": false,
          "internalType": "uint256",
          "name": "_step",
          "type": "uint256"
        },
        {
          "indexed": false,
          "internalType": "address",
          "name": "_itemAddress",
          "type": "address"
        }
      ],
      "name": "SupplyChainStep",
      "type": "event"
    },
    {
      "inputs": [],
      "name": "_owner",
      "outputs": [
        {
          "internalType": "address",
          "name": "",
          "type": "address"
        }
      ],
      "stateMutability": "view",
      "type": "function",
      "constant": true
    },
    {
      "inputs": [],
      "name": "isOwner",
      "outputs": [
        {
          "internalType": "bool",
          "name": "",
          "type": "bool"
        }
      ],
      "stateMutability": "view",
      "type": "function",
      "constant": true
    },
    {
      "inputs": [],
      "name": "itemIndex",
      "outputs": [
        {
          "internalType": "uint256",
          "name": "",
          "type": "uint256"
        }
      ],
      "stateMutability": "view",
      "type": "function",
      "constant": true
    },
    {
      "inputs": [
        {
          "internalType": "uint256",
          "name": "",
          "type": "uint256"
        }
      ],
      "name": "items",
      "outputs": [
        {
          "internalType": "contract Item",
          "name": "_item",
          "type": "address"
        },
        {
          "internalType": "string",
          "name": "_identifier",
          "type": "string"
        },
        {
          "internalType": "uint256",
          "name": "_itemPrice",
          "type": "uint256"
        },
        {
          "internalType": "enum ItemManager.SupplyChainState",
          "name": "_state",
          "type": "uint8"
        }
      ],
      "stateMutability": "view",
      "type": "function",
      "constant": true
    },
    {
      "inputs": [
        {
          "internalType": "string",
          "name": "_identifier",
          "type": "string"
        },
        {
          "internalType": "uint256",
          "name": "_itemPrice",
          "type": "uint256"
        }
      ],
      "name": "createItem",
      "outputs": [],
      "stateMutability": "nonpayable",
      "type": "function"
    },
    {
      "inputs": [
        {
          "internalType": "uint256",
          "name": "_itemIndex",
          "type": "uint256"
        }
      ],
      "name": "triggerPayment",
      "outputs": [],
      "stateMutability": "payable",
      "type": "function",
      "payable": true
    },
    {
      "inputs": [
        {
          "internalType": "uint256",
          "name": "_itemIndex",
          "type": "uint256"
        }
      ],
      "name": "triggerDelivery",
      "outputs": [],
      "stateMutability": "nonpayable",
      "type": "function"
    }
  ],
  "bytecode": "0x608060405234801561001057600080fd5b50336000806101000a81548173ffffffffffffffffffffffffffffffffffffffff021916908373ffffffffffffffffffffffffffffffffffffffff160217905550611bc7806100606000396000f3fe6080604052600436106200007a5760003560e01c8063b2bdfa7b1162000055578063b2bdfa7b14620000fd578063bfb231d2146200012d578063cd31831e1462000174578063e07bb1a714620001a2576200007a565b8063800fb83f146200007f5780638c551742146200009f5780638f32d59b14620000cd575b600080fd5b6200009d600480360381019062000097919062000ce6565b620001d2565b005b348015620000ac57600080fd5b50620000cb6004803603810190620000c5919062000c8c565b62000557565b005b348015620000da57600080fd5b50620000e562000761565b604051620000f4919062000e9e565b60405180910390f35b3480156200010a57600080fd5b5062000115620007b8565b60405162000124919062000e81565b60405180910390f35b3480156200013a57600080fd5b5062000159600480360381019062000153919062000ce6565b620007dc565b6040516200016b949392919062000ef8565b60405180910390f35b3480156200018157600080fd5b50620001a060048036038101906200019a919062000ce6565b620008c9565b005b348015620001af57600080fd5b50620001ba62000b28565b604051620001c9919062000fd4565b60405180910390f35b60006001600083815260200190815260200160002060000160009054906101000a900473ffffffffffffffffffffffffffffffffffffffff1690503373ffffffffffffffffffffffffffffffffffffffff168173ffffffffffffffffffffffffffffffffffffffff16146200027e576040517f08c379a0000000000000000000000000000000000000000000000000000000008152600401620002759062000fb2565b60405180910390fd5b348173ffffffffffffffffffffffffffffffffffffffff16633c8da5886040518163ffffffff1660e01b815260040160206040518083038186803b158015620002c657600080fd5b505afa158015620002db573d6000803e3d6000fd5b505050506040513d601f19601f8201168201806040525081019062000301919062000d12565b1462000344576040517f08c379a00000000000000000000000000000000000000000000000000000000081526004016200033b9062000f90565b60405180910390fd5b600060028111156200037f577f4e487b7100000000000000000000000000000000000000000000000000000000600052602160045260246000fd5b6001600084815260200190815260200160002060030160009054906101000a900460ff166002811115620003dc577f4e487b7100000000000000000000000000000000000000000000000000000000600052602160045260246000fd5b146200041f576040517f08c379a0000000000000000000000000000000000000000000000000000000008152600401620004169062000f4c565b60405180910390fd5b600180600084815260200190815260200160002060030160006101000a81548160ff021916908360028111156200047f577f4e487b7100000000000000000000000000000000000000000000000000000000600052602160045260246000fd5b02179055507fa4035636e99f06b7651a604c1019fa4e8779fe68ef27eeb74dff2de348f6199b826001600085815260200190815260200160002060030160009054906101000a900460ff16600281111562000503577f4e487b7100000000000000000000000000000000000000000000000000000000600052602160045260246000fd5b6001600086815260200190815260200160002060000160009054906101000a900473ffffffffffffffffffffffffffffffffffffffff166040516200054b9392919062000ff1565b60405180910390a15050565b600030826002546040516200056c9062000b2e565b6200057a9392919062000ebb565b604051809103906000f08015801562000597573d6000803e3d6000fd5b5090508060016000600254815260200190815260200160002060000160006101000a81548173ffffffffffffffffffffffffffffffffffffffff021916908373ffffffffffffffffffffffffffffffffffffffff1602179055508260016000600254815260200190815260200160002060010190805190602001906200061f92919062000b3c565b508160016000600254815260200190815260200160002060020181905550600060016000600254815260200190815260200160002060030160006101000a81548160ff02191690836002811115620006a0577f4e487b7100000000000000000000000000000000000000000000000000000000600052602160045260246000fd5b02179055507fa4035636e99f06b7651a604c1019fa4e8779fe68ef27eeb74dff2de348f6199b60025460016000600254815260200190815260200160002060030160009054906101000a900460ff16600281111562000728577f4e487b7100000000000000000000000000000000000000000000000000000000600052602160045260246000fd5b836040516200073a9392919062000ff1565b60405180910390a16002600081548092919062000757906200121d565b9190505550505050565b60008060009054906101000a900473ffffffffffffffffffffffffffffffffffffffff1673ffffffffffffffffffffffffffffffffffffffff163373ffffffffffffffffffffffffffffffffffffffff1614905090565b60008054906101000a900473ffffffffffffffffffffffffffffffffffffffff1681565b60016020528060005260406000206000915090508060000160009054906101000a900473ffffffffffffffffffffffffffffffffffffffff16908060010180546200082790620011b1565b80601f01602080910402602001604051908101604052809291908181526020018280546200085590620011b1565b8015620008a65780601f106200087a57610100808354040283529160200191620008a6565b820191906000526020600020905b8154815290600101906020018083116200088857829003601f168201915b5050505050908060020154908060030160009054906101000a900460ff16905084565b620008d362000761565b62000915576040517f08c379a00000000000000000000000000000000000000000000000000000000081526004016200090c9062000f6e565b60405180910390fd5b6001600281111562000950577f4e487b7100000000000000000000000000000000000000000000000000000000600052602160045260246000fd5b6001600083815260200190815260200160002060030160009054906101000a900460ff166002811115620009ad577f4e487b7100000000000000000000000000000000000000000000000000000000600052602160045260246000fd5b14620009f0576040517f08c379a0000000000000000000000000000000000000000000000000000000008152600401620009e79062000f4c565b60405180910390fd5b60026001600083815260200190815260200160002060030160006101000a81548160ff0219169083600281111562000a51577f4e487b7100000000000000000000000000000000000000000000000000000000600052602160045260246000fd5b02179055507fa4035636e99f06b7651a604c1019fa4e8779fe68ef27eeb74dff2de348f6199b816001600084815260200190815260200160002060030160009054906101000a900460ff16600281111562000ad5577f4e487b7100000000000000000000000000000000000000000000000000000000600052602160045260246000fd5b6001600085815260200190815260200160002060000160009054906101000a900473ffffffffffffffffffffffffffffffffffffffff1660405162000b1d9392919062000ff1565b60405180910390a150565b60025481565b61075e806200143483390190565b82805462000b4a90620011b1565b90600052602060002090601f01602090048101928262000b6e576000855562000bba565b82601f1062000b8957805160ff191683800117855562000bba565b8280016001018555821562000bba579182015b8281111562000bb957825182559160200191906001019062000b9c565b5b50905062000bc9919062000bcd565b5090565b5b8082111562000be857600081600090555060010162000bce565b5090565b600062000c0362000bfd8462001057565b6200102e565b90508281526020810184848401111562000c1c57600080fd5b62000c298482856200116c565b509392505050565b600082601f83011262000c4357600080fd5b813562000c5584826020860162000bec565b91505092915050565b60008135905062000c6f8162001419565b92915050565b60008151905062000c868162001419565b92915050565b6000806040838503121562000ca057600080fd5b600083013567ffffffffffffffff81111562000cbb57600080fd5b62000cc98582860162000c31565b925050602062000cdc8582860162000c5e565b9150509250929050565b60006020828403121562000cf957600080fd5b600062000d098482850162000c5e565b91505092915050565b60006020828403121562000d2557600080fd5b600062000d358482850162000c75565b91505092915050565b62000d4981620010a9565b82525050565b62000d5a81620010bd565b82525050565b62000d6b8162001108565b82525050565b62000d7c8162001130565b82525050565b62000d8d8162001158565b82525050565b600062000da0826200108d565b62000dac818562001098565b935062000dbe8185602086016200117b565b62000dc98162001327565b840191505092915050565b600062000de3601c8362001098565b915062000df08262001338565b602082019050919050565b600062000e0a60208362001098565b915062000e178262001361565b602082019050919050565b600062000e3160128362001098565b915062000e3e826200138a565b602082019050919050565b600062000e58602b8362001098565b915062000e6582620013b3565b604082019050919050565b62000e7b81620010fe565b82525050565b600060208201905062000e98600083018462000d3e565b92915050565b600060208201905062000eb5600083018462000d4f565b92915050565b600060608201905062000ed2600083018662000d60565b62000ee1602083018562000e70565b62000ef0604083018462000e70565b949350505050565b600060808201905062000f0f600083018762000d71565b818103602083015262000f23818662000d93565b905062000f34604083018562000e70565b62000f43606083018462000d82565b95945050505050565b6000602082019050818103600083015262000f678162000dd4565b9050919050565b6000602082019050818103600083015262000f898162000dfb565b9050919050565b6000602082019050818103600083015262000fab8162000e22565b9050919050565b6000602082019050818103600083015262000fcd8162000e49565b9050919050565b600060208201905062000feb600083018462000e70565b92915050565b600060608201905062001008600083018662000e70565b62001017602083018562000e70565b62001026604083018462000d3e565b949350505050565b60006200103a6200104d565b9050620010488282620011e7565b919050565b6000604051905090565b600067ffffffffffffffff821115620010755762001074620012f8565b5b620010808262001327565b9050602081019050919050565b600081519050919050565b600082825260208201905092915050565b6000620010b682620010de565b9050919050565b60008115159050919050565b6000819050620010d98262001402565b919050565b600073ffffffffffffffffffffffffffffffffffffffff82169050919050565b6000819050919050565b600062001115826200111c565b9050919050565b60006200112982620010de565b9050919050565b60006200113d8262001144565b9050919050565b60006200115182620010de565b9050919050565b60006200116582620010c9565b9050919050565b82818337600083830152505050565b60005b838110156200119b5780820151818401526020810190506200117e565b83811115620011ab576000848401525b50505050565b60006002820490506001821680620011ca57607f821691505b60208210811415620011e157620011e0620012c9565b5b50919050565b620011f28262001327565b810181811067ffffffffffffffff82111715620012145762001213620012f8565b5b80604052505050565b60006200122a82620010fe565b91507fffffffffffffffffffffffffffffffffffffffffffffffffffffffffffffffff82141562001260576200125f6200126b565b5b600182019050919050565b7f4e487b7100000000000000000000000000000000000000000000000000000000600052601160045260246000fd5b7f4e487b7100000000000000000000000000000000000000000000000000000000600052602160045260246000fd5b7f4e487b7100000000000000000000000000000000000000000000000000000000600052602260045260246000fd5b7f4e487b7100000000000000000000000000000000000000000000000000000000600052604160045260246000fd5b6000601f19601f8301169050919050565b7f4974656d206973206675727468657220696e2074686520636861696e00000000600082015250565b7f4f776e61626c653a2063616c6c6572206973206e6f7420746865206f776e6572600082015250565b7f4e6f742066756c6c792070616964207965740000000000000000000000000000600082015250565b7f4f6e6c79206974656d732061726520616c6c6f77656420746f2075706461746560008201527f207468656d73656c766573000000000000000000000000000000000000000000602082015250565b600381106200141657620014156200129a565b5b50565b6200142481620010fe565b81146200143057600080fd5b5056fe608060405234801561001057600080fd5b5060405161075e38038061075e833981810160405281019061003291906100b3565b816000819055508060028190555082600360006101000a81548173ffffffffffffffffffffffffffffffffffffffff021916908373ffffffffffffffffffffffffffffffffffffffff16021790555050505061017e565b60008151905061009881610150565b92915050565b6000815190506100ad81610167565b92915050565b6000806000606084860312156100c857600080fd5b60006100d686828701610089565b93505060206100e78682870161009e565b92505060406100f88682870161009e565b9150509250925092565b600061010d82610126565b9050919050565b600061011f82610102565b9050919050565b600073ffffffffffffffffffffffffffffffffffffffff82169050919050565b6000819050919050565b61015981610114565b811461016457600080fd5b50565b61017081610146565b811461017b57600080fd5b50565b6105d18061018d6000396000f3fe6080604052600436106100385760003560e01c80632986c0e5146102435780633c8da5881461026e57806389794d001461029957610241565b36610241576000543414610081576040517f08c379a0000000000000000000000000000000000000000000000000000000008152600401610078906103b6565b60405180910390fd5b6000600154146100c6576040517f08c379a00000000000000000000000000000000000000000000000000000000081526004016100bd90610396565b60405180910390fd5b34600160008282546100d89190610438565b925050819055506000600360009054906101000a900473ffffffffffffffffffffffffffffffffffffffff1673ffffffffffffffffffffffffffffffffffffffff163460025460405160240161012e91906103f6565b6040516020818303038152906040527f800fb83f000000000000000000000000000000000000000000000000000000007bffffffffffffffffffffffffffffffffffffffffffffffffffffffff19166020820180517bffffffffffffffffffffffffffffffffffffffffffffffffffffffff83818316178352505050506040516101b8919061037f565b60006040518083038185875af1925050503d80600081146101f5576040519150601f19603f3d011682016040523d82523d6000602084013e6101fa565b606091505b505090508061023e576040517f08c379a0000000000000000000000000000000000000000000000000000000008152600401610235906103d6565b60405180910390fd5b50005b005b34801561024f57600080fd5b506102586102c4565b60405161026591906103f6565b60405180910390f35b34801561027a57600080fd5b506102836102ca565b60405161029091906103f6565b60405180910390f35b3480156102a557600080fd5b506102ae6102d0565b6040516102bb91906103f6565b60405180910390f35b60025481565b60005481565b60015481565b60006102e182610411565b6102eb818561041c565b93506102fb818560208601610498565b80840191505092915050565b6000610314601583610427565b915061031f826104fa565b602082019050919050565b6000610337602183610427565b915061034282610523565b604082019050919050565b600061035a601583610427565b915061036582610572565b602082019050919050565b6103798161048e565b82525050565b600061038b82846102d6565b915081905092915050565b600060208201905081810360008301526103af81610307565b9050919050565b600060208201905081810360008301526103cf8161032a565b9050919050565b600060208201905081810360008301526103ef8161034d565b9050919050565b600060208201905061040b6000830184610370565b92915050565b600081519050919050565b600081905092915050565b600082825260208201905092915050565b60006104438261048e565b915061044e8361048e565b9250827fffffffffffffffffffffffffffffffffffffffffffffffffffffffffffffffff03821115610483576104826104cb565b5b828201905092915050565b6000819050919050565b60005b838110156104b657808201518184015260208101905061049b565b838111156104c5576000848401525b50505050565b7f4e487b7100000000000000000000000000000000000000000000000000000000600052601160045260246000fd5b7f4974656d20697320616c72656164792070616964210000000000000000000000600082015250565b7f576520646f6e277420737570706f7274207061727469616c207061796d656e7460008201527f7300000000000000000000000000000000000000000000000000000000000000602082015250565b7f44656c697665727920646964206e6f7420776f726b000000000000000000000060008201525056fea2646970667358221220de98cfaeda47c26dd28db3ed2419ef86891e736543379513d10346aa031f156364736f6c63430008010033a2646970667358221220f2d2e359de82a5ef380c5f8c380809ad01d1fea0d01072cf6822fc00e295140664736f6c63430008010033",
  "immutableReferences": {},
  "source": "//SPDX-License-Identifier: MIT\r\npragma solidity ^0.8.1;\r\nimport \"./Ownable.sol\";\r\nimport \"./Item.sol\";\r\n\r\ncontract ItemManager is Ownable {\r\n    enum SupplyChainState {\r\n        Created,\r\n        Paid,\r\n        Delivered\r\n    }\r\n\r\n    struct S_Item {\r\n        Item _item;\r\n        string _identifier;\r\n        uint256 _itemPrice;\r\n        ItemManager.SupplyChainState _state;\r\n    }\r\n\r\n    mapping(uint256 => S_Item) public items;\r\n\r\n    uint256 public itemIndex;\r\n\r\n    event SupplyChainStep(\r\n        uint256 _itemIndex,\r\n        uint256 _step,\r\n        address _itemAddress\r\n    );\r\n\r\n    function createItem(string memory _identifier, uint256 _itemPrice)\r\n        public\r\n        \r\n    {\r\n        Item item = new Item(this, _itemPrice, itemIndex);\r\n        items[itemIndex]._item = item;\r\n        items[itemIndex]._identifier = _identifier;\r\n        items[itemIndex]._itemPrice = _itemPrice;\r\n        items[itemIndex]._state = SupplyChainState.Created;\r\n        emit SupplyChainStep(\r\n            itemIndex,\r\n            uint256(items[itemIndex]._state),\r\n            address(item)\r\n        );\r\n        itemIndex++;\r\n    }\r\n\r\n    function triggerPayment(uint256 _itemIndex) public payable {\r\n        Item item = items[_itemIndex]._item;\r\n        require(\r\n            address(item) == msg.sender,\r\n            \"Only items are allowed to update themselves\"\r\n        );\r\n        require(item.priceInWei() == msg.value, \"Not fully paid yet\");\r\n        require(\r\n            items[_itemIndex]._state == SupplyChainState.Created,\r\n            \"Item is further in the chain\"\r\n        );\r\n        items[_itemIndex]._state = SupplyChainState.Paid;\r\n        emit SupplyChainStep(\r\n            _itemIndex,\r\n            uint256(items[_itemIndex]._state),\r\n            address(items[_itemIndex]._item)\r\n        );\r\n    }\r\n\r\n    function triggerDelivery(uint256 _itemIndex) public onlyOwner {\r\n        require(\r\n            items[_itemIndex]._state == SupplyChainState.Paid,\r\n            \"Item is further in the chain\"\r\n        );\r\n        items[_itemIndex]._state = SupplyChainState.Delivered;\r\n        emit SupplyChainStep(\r\n            _itemIndex,\r\n            uint256(items[_itemIndex]._state),\r\n            address(items[_itemIndex]._item)\r\n        );\r\n    }\r\n}\r\n",
  "sourcePath": "/media/kartikey321/New Volume/Flutter Projects/blockchain_ex/contracts/ItemManager.sol",
  "compiler": {
    "name": "solc",
    "version": "0.8.1+commit.df193b15.Emscripten.clang"
  },
  "schemaVersion": "3.4.4",
  "updatedAt": "2022-01-15T06:47:33.385Z",
  "networkType": "ethereum",
  "devdoc": {
    "kind": "dev",
    "methods": {},
    "version": 1
  },
  "userdoc": {
    "kind": "user",
    "methods": {},
    "version": 1
  }
}